:020000040800F2
:10000000200800204D0200083F230008C3220008FA
:100010003D23000825110008F52A00080000000013
:10002000000000000000000000000000ED240008B7
:10003000271100080000000041230008EF240008F9
:1000400067020008670200086702000867020008EC
:1000500067020008670200086702000867020008DC
:1000600067020008670200086702000867020008CC
:1000700067020008670200086702000867020008BC
:1000800067020008670200086702000867020008AC
:10009000670200086702000867020008670200089C
:1000A000670200086702000867020008670200088C
:1000B000670200080000000000000000670200085E
:1000C000670200086702000867020008670200086C
:1000D00067020008E92A00086702000867020008B2
:1000E000670200086702000800000000000000002E
:1000F0000000000000000000000000000000000000
:10010000000000006702000800000000670200080D
:1001100000000000000000006702000867020008FD
:10012000670200086702000867020008670200080B
:10013000670200080000000000000000000000004E
:10014000670200086702000867020008000000005C
:1001500067020008670200086702000867020008DB
:10016000670200086702000867020008000000003C
:10017000670200086702000800000000000000009D
:1001800067020008670200086702000800F002F832
:1001900000F04CF80AA090E8000C82448344AAF1D5
:1001A0000107DA4501D100F041F8AFF2090EBAE8D3
:1001B0000F0013F0010F18BFFB1A43F0010318479B
:1001C000F42A0000142B0000103A24BF78C878C12C
:1001D000FAD8520724BF30C830C144BF04680C604D
:1001E000704700000023002400250026103A28BF95
:1001F00078C1FBD8520728BF30C148BF0B60704799
:10020000642900F0D980782900F01281002070471D
:100210001FB502F001FD9DE8030000F055FD00F060
:100220005BFA1FBD10B500F0C0FA10BD00F023FB53
:100230001146FFF7EDFF02F07BFC00F013FD03B465
:10024000FFF7F0FF03BC00F0D1FE00000948804733
:1002500009480047FEE7FEE7FEE7FEE7FEE7FEE7A8
:10026000FEE7FEE7FEE7FEE704480549054A064BC0
:1002700070470000792500088D0100082002002049
:1002800020080020200400202004002053EA020C53
:1002900000F069802DE9F04B4FF00006002B1FBFE6
:1002A000B3FA83F503FA05F424FA05F65E4012BFAB
:1002B0001643B2FA82F502FA05F4C5F120051EBF15
:1002C00022FA05FC44EA0C04203556EA044C4FEAB5
:1002D000144418BF641C4FF000084FF0000990420E
:1002E00071EB030C39D3002919BFB1FA81F701FA78
:1002F00007F6B0FA80F700FA07F6C7F120071EBF2D
:1003000020FA07FC46EA0C062037B6FBF4FCA7EB04
:100310000507103F07F01F0BCBF120060CFA0BFB73
:100320002CFA06F644BFB3460026202FA4BF5E4633
:100330004FF0000B5BEA060C08BF4FF0010B19EB06
:100340000B09ABFB027C48EB0608C01B06FB02CC8A
:100350000BFB03CC71EB0C01C1E70B460246414697
:100360004846BDE8F08B13B54FF000004FF0000198
:10037000AFF30080BDE81C40704700000FB4044993
:1003800010B503AA029800F079F910BC5DF814FBCF
:100390001801002009684A0501D540B27047C90517
:1003A000FCD500B2704709684A0501D5C0B2704754
:1003B000C905FCD580B270472DE9F04106460024FE
:1003C00010687529314616A510D0FFF7E3FF002805
:1003D00002DA404213A507E031688A0701D512A569
:1003E00002E0490704D511A5012401E0FFF7DBFF76
:1003F00000210A2206F1240709E0B0FBF2FCB0FB61
:10040000F2F302FB1C00303078541846491C0028D7
:10041000F3D123462A463046BDE8F04100F0D4B877
:10042000000000002D0000002B0000002000000054
:1004300070B504460D4621461068FFF7B4FF2188C9
:10044000090502D50F4A7A4402E00E4A7A440E3278
:10045000002104F1240305E000F00F060009965D79
:100460005E54491C0028F7D120780023000704D5EA
:10047000702D02D009B1022311322046BDE8704030
:1004800000F0A2B8222800002DE9F0478846064671
:100490000020DFF8DC90F94430623046F16888478C
:1004A000002862D0252806D0D6E901219047306A7D
:1004B000401C3062F1E700254F463046F16888471E
:1004C0002028044607DB312C05D2381910F8200CFF
:1004D00008B10543F1E7A80701D525F004056C2C08
:1004E0000AD0682C08D04C2C38D06A2C34D0742C0C
:1004F00034D07A2C32D015E0F16827463046884750
:10050000B842044609D16C2F26D04FF48060F168C0
:10051000054330468847044604E06C2F1AD04FF458
:10052000807005430CB3A4F14100192802D820348F
:1005300045F4006542462146304635604546FFF7A2
:100540005FFE80B101280BD0ED1D25F0070000F102
:100550000808A2E74020E4E78020D8E70020D6E79B
:1005600005F1040899E720469EE7306ABDE8F08768
:10057000FA2700004FF0000200B513469446964655
:10058000203922BFA0E80C50A0E80C50B1F12001A6
:10059000BFF4F7AF090728BFA0E80C5048BF0CC054
:1005A0005DF804EB890028BF40F8042B08BF7047B2
:1005B00048BF20F8022B11F0804F18BF00F8012B24
:1005C00070477047704770472DE9F0470D469946D0
:1005D0009246044600F124080168880604D5E069C3
:1005E00021F01001216000E00120A84201DD471B3D
:1005F00000E00027A1697A1902EB0900081AA0613E
:100600002078C00602D42046AFF30080002608E020
:10061000D4E901211AF806009047206A401C761C94
:1006200020624E45F4DB2078C0060AD52046AFF3A1
:10063000008006E0D4E9012130209047206A401C68
:100640002062381EA7F10107F4DC07E0D4E901219C
:1006500018F805009047206A401C2062281EA5F16A
:100660000105F3DC2046AFF300802078000602D5B8
:100670000220BDE8F0870120FBE70000074B70B5C2
:100680000D467B4400F011F80446284600F020F89F
:1006900010B14FF0FF3070BD204670BD91240000B6
:1006A00001694A1C02610878704700B58FB0CDE936
:1006B00001310021059105497944CDE90310114626
:1006C0006846FFF7E1FE0FB000BD0000E5FFFFFF49
:1006D000007B00F08000704710B542485421FFF7BE
:1006E00049FF41485421FFF745FF40485421FFF797
:1006F00041FF3F493B483C4A3F4B08603D490A6047
:100700003A491960531C0365481C106501200865AF
:100710003B48344A39A1784400F008FA20B93848F7
:1007200078440A3800F0A7FA37482F4A35A17844B0
:1007300000F0FCF920B9344878440A3800F09BFAFC
:1007400032482A4A2FA1784400F0F0F920B92F4806
:1007500078440A3800F08FFA40232248DC00002158
:10076000224600F0BFF920B125487844543800F003
:1007700082FA1D4822464023002100F0B3F920B13F
:1007800021487844543800F076FA1848224610235D
:10079000002100F0A7F9002806D01C487844BDE8E5
:1007A0001040563800F067BA10BD104870B5006DA3
:1007B00020F001040B4800F02FFA0B4800F02CFA4F
:1007C0000A4800F029FA09E0206D20F001052046D2
:1007D00000F022FA204600F073F82C46002CF3D1EA
:1007E00070BD0000C4000020180100206C01002032
:1007F000280000202C0000203000002072000000A3
:100800008B2500007700000077250000632500009D
:100810000EB5CDE9000100F0C9FB02906946012048
:10082000ABBE0EBD08B5694600900220ABBE08BD48
:100830001FB58DE8070069460520ABBE04B010BDAA
:100840001FB58DE80F0069460620ABBEF6E708B578
:10085000694600900920ABBE08BD1CB5CDE900017A
:1008600069460A20ABBE1CBD704708B569460090BA
:100870000C20ABBE08BD754600F004FAAE4605007C
:100880006946534620F00700854618B020B5FFF7AB
:10089000EBFCBDE820404FF000064FF000074FF0A2
:1008A00000084FF0000B21F00701AC46ACE8C0098E
:1008B000ACE8C009ACE8C009ACE8C0098D46704797
:1008C00070B50446051F00F0E3F90068002C14BF62
:1008D000446870BD002C18BFAC423CBF2046646821
:1008E000F8D301680A18AA4218BF456003D12A68E4
:1008F00005461144016028684119A1421CBF6C6083
:1009000070BD6168696021680844286070BD2DE988
:10091000F04705460C46C86820F4201040F48000DB
:10092000C860800602D5084600F0FFFAE06841F290
:1009300082014FF0FF390140022903D0204600F028
:100940009DFAB5E000F42041B1F5004F0FD1C0038E
:1009500006D56168E06A884200D80846606006E013
:100960002069E06260606069FFF77FFFA061A068B6
:100970000022EEB200280DDAE1688B050AD4C043EC
:10098000A06041F490302260E0606068411C6160CA
:100990000670A5E0E0689046226040F40050E060F8
:1009A000206968BB6069FFF752FF012704F1240545
:1009B000A0B1A08910F4407F08D0E06900F0B3F93D
:1009C000206118B1E06840F4006016E0E76125613D
:1009D000E06820F4407040F480600EE0E06900F0D0
:1009E000A2F900282061F1D0E06840F4006010F422
:1009F000407FE06002D140F48070E0602069606078
:100A0000E06825696FF0010AC1051FD56168E06AD9
:100A1000884200D80846411B04D02246284600F0F0
:100A200037FAF0BBE068010203D5E562C4E901587A
:100A300054E0691CE1626160E16940F48030491E64
:100A4000C4E9021030462E70BDE8F087010202D5DD
:100A500000F480320AE06068411C61600670E06862
:100A60000A2E40F48030E06006D00022E16A60681F
:100A7000814203D90B4602E00122F7E70346A7892A
:100A80005B1B7F0503D4E7699F4200DDE2B1814231
:100A900000D80146E5620F1AC4E90158002B09DDB0
:100AA00000E005E022461946284600F0F1F908B1B9
:100AB0004846C9E747B1A069E5626560C01BA0610F
:100AC000E06840F01000E060E068000208D561686E
:100AD000A069E562491B08446560A0615046B3E720
:100AE0003046B1E770B5C468A50713D0650211D4CC
:100AF000B2F5807F09D0B2F5007F06D0B2F5806FE5
:100B000008D1012300F1240106E05D1E6FF07F464D
:100B1000B54201D3012070BD0161C361416024F47D
:100B200070611143C160002070BD00002DE9F041EB
:100B30000C4607461646104600F06EF82078611CF9
:100B400061280AD0722802D077283CD102E0012522
:100B5000002405E00225042402E0082448F20205EE
:100B600011F8010B2B2806D0622809D011F8010CCE
:100B700074280AD00BE045F0030544F00204EFE7C7
:100B800045F0040544F00104EAE744F01004384657
:100B90002146FFF73DFE411C15D0002131617160F7
:100BA0004FF40071F560F1617061200704D53046A3
:100BB0000222002100F0E6F8306D40F001003065BF
:100BC0003046BDE8F0810020FBE72DE9F0410D46FD
:100BD0000646104C206DC10704D0410804D020F017
:100BE0000104F7E722460EE0542000F09CF80700CD
:100BF0000ED0206D47F0010108435421206538468E
:100C0000FFF7B8FC3A4629463046BDE8F0418DE78B
:100C10000020D6E7C40000202DE9F04704464FF03D
:100C200000094FF0FF37C568D4E90486A80707D04C
:100C3000204600F057F93046FFF7F4FD002802DAAD
:100C40003846BDE8F087280502D54046FFF738FE54
:100C50004C212046FFF78EFC206D20F0010020651E
:100C60004846EEE710B50446AFF300802046BDE8E5
:100C70001040FFF7E4BA10B500F07EF9BDE810406F
:100C800000F074B900487047C001002070470000B0
:100C900000487047C8010020704770477047704790
:100CA00038B504460A4600206946AFF300800028A4
:100CB00008BF38BD02460099204600F0A4F9012083
:100CC00038BD012000F0F3B9F8B5AFF30080054658
:100CD00000200C46102000BF0646A819A0420DD9DE
:100CE000324669460020AFF30080070008BF00F0DD
:100CF000DEF90098A04218BF0546C419FFF7C8FFE7
:100D000005600746F01D20F007004619284600F050
:100D100073F9B44208BFF8BDA21B31463868BDE87C
:100D2000F84000F070B970B50646FFF7B1FF0568EE
:100D300006F10B0020F00704B4429CBF002070BDF8
:100D40002B466A68BAB11068A04210D304F10801BA
:100D500088423CBF5068586007D351681019416001
:100D60001168091B016058601460101D70BD1346A6
:100D70005268002AE7D121462846FFF791FF002854
:100D8000DED170BD2DE9F041044616460D46476997
:100D9000007B80072ED03846FFF759FD50BB3EB38D
:100DA000012E02D0022E25D104E0204600F045F9A4
:100DB00005441DE03846FFF758FDE168002841F082
:100DC0001001E16005DA204600F058F80120BDE886
:100DD000F081C9030BD56268E16A914200D81146DF
:100DE000A26911442269891A814200DD084605443E
:100DF000002D01DA0220EAE7E16A6068E2688142D8
:100E000006D29103E06203D522F4003141F01002D2
:100E1000A6690027AE4213DCE16A814201D90B4684
:100E200000E0034603EB060C2369ACEB030CAC4576
:100E300006DD814201D98C4600E084469C4505D1FF
:100E4000A760276042F02000A5620DE0AD1BE669B7
:100E5000AE1B8142A66000D90846C01A281A20603D
:100E60005819606022F0200003490840E06000202B
:100E700084F84870ABE70000BFCFD7FFC16821F40A
:100E8000001141F08001C160002181600160704764
:100E90002DE9F047814614460E464FF0FF383248A0
:100EA000D5685769054209D03846A169FFF7D5FCD6
:100EB000002811DB2C48C0430540E5602B46324634
:100EC00049463846FFF7B4FCA16920F00042B21A47
:100ED00011440028A16103D02046FFF7CFFF404610
:100EE000BDE8F08770B504460569C06A616888424C
:100EF00000D80846E16821F42011E160C90312D549
:100F0000A84208D02246411B2846FFF7C1FF10B176
:100F10004FF0FF3070BD0020E562C4E90150E06889
:100F200020F48030E060002070BD10B50446C06839
:100F300020F02000E060A16AA06988420DD0204620
:100F4000FFF7D0FFE06820F4405040F01000E06070
:100F5000A06AA0612069E062606044F24001E0683C
:100F60008843E06010BD000010000200002801D09E
:100F700000F03CB87047000010B5014602A000F038
:100F80007DF8012010BD000053494752545245449A
:100F90003A2052656469726563743A2063616E2712
:100FA00074206F70656E3A200000000010B5431C7D
:100FB00002E010F8011B71B18107FAD14FF0013244
:100FC00002C88C1A8C4314EAC211F9D0C01A0A065E
:100FD00003D0C01E10BDC01A10BD0A0401D0801E6F
:100FE00010BD0902FCD0401E10BD000001491820B0
:100FF000ABBEFEE72600020000210160C0E901103F
:10100000704710207047034640688C46002818BF80
:1010100088423CBF03464068F8D3186818448842A9
:1010200007D00CF1030020F00700001D411A521AEE
:101030000146081D0A60FFF743BC10B50146C268AF
:10104000900703D0900607D5886A0AE000F03EF8C2
:1010500001210160881E10BD8B69486818440B6926
:10106000C01A91F848301BB191F84910401A10BDD0
:101070001103FCD50028FADD401E10BD70B50546F1
:101080000C460A2000E06D1C00F018F835B12878F5
:101090000028F8D102E0641C00F010F814B12078A8
:1010A0000028F8D1BDE870400A2000F007B810B55C
:1010B00000F010F8BDE81040FFF758BF08B56946CA
:1010C0008DF800000320ABBE08BD0000004870474B
:1010D000C001002010B5012805D0002103A0FFF7B2
:1010E000CDFF012010BD09A1F8E700005349475288
:1010F000544D454D3A204F7574206F6620686561E8
:1011000070206D656D6F7279000000003A204865AF
:101110006170206D656D6F727920636F727275708A
:1011200074656400FEE7704772B6FEE710B590F88C
:1011300025100024022903D00421C16301241AE0F0
:1011400001680A6822F00E020A6001680A6822F04B
:1011500001020A6090F84410036C01F01C020121A6
:1011600001FA02F25A6080F82510002180F824105C
:10117000816B01B18847204610BD00002DE9FC4F6E
:10118000DFF894A1002301250AF1040B03244FF09A
:101190000F0C0BF1040EB8E005FA03F632406FD0E5
:1011A0004F68012F05D0022F03D0112F01D0122F2D
:1011B00017D1D0F808905F0004FA07F829EA080967
:1011C0000097D1F80C8008FA07F848EA0908C0F837
:1011D00008804768B7430E79C6F300169E403E4329
:1011E0004660C6684FEA430804FA08F7BE43019711
:1011F0008F6807FA08F73743C7604E68022E01D0A0
:10120000122E13D1DE0800EB86060096366A5F07C1
:10121000FF0E0CFA07F926EA0906D1F8109009FA30
:1012200007F949EA0609009EC6F820900668019F62
:10123000BE430F7907F0030707FA08F73743076043
:101240004E68F60060D5354E376E47F001073766B9
:10125000366E23F0030706F001060096304E3E443A
:10126000B146B6689F074FEA17780CFA08F7BE43F5
:10127000B0F1904F05D02B4FB84204D1012712E0B6
:1012800042E000270FE0284FB84201D102270AE0D0
:10129000264FB84201D1032705E0254FB84201D1BE
:1012A000042700E0072707FA08F73743C9F8087052
:1012B000DAF800605746D1F8048096435FEAC838F0
:1012C00000D516433E60DBF800605F46D1F804802D
:1012D00096435FEA883800D516433E60DEF800602A
:1012E0007746D1F8048096435FEAC82800D51643B4
:1012F0003E60094F0C373E68D1F8048096435FEAA0
:10130000882800D516433E605B1C0A6832FA03F653
:101310007FF442AF00F00EB800040140001002401C
:10132000000001400004004800080048000C00488C
:10133000001000481CBCBDE8E08F00000148806838
:1013400070470000180000200248816802781144AC
:10135000816070471800002010B50024032000F0C1
:1013600071F8002000F008F808B1012401E000F055
:1013700025F8204610BD000070B50E4E054600242D
:10138000307898B14FF47A71B1FBF0F00A490968EE
:10139000B1FBF0F000F0BEFD40B9102D06D20022E6
:1013A0002946501E00F02EF8756000E0012420460A
:1013B00070BD00001800002024000020094808B576
:1013C000016E41F001010166016E01F00101009121
:1013D000816D41F080518165806D00F080500090FA
:1013E00008BD000000100240002809DB00F01F02C9
:1013F000012191404009800000F1E020C0F8001177
:1014000070470000F0B40E4B1B680C46C3F3022378
:10141000C3F10705042D00D90425191D072901D2A0
:10142000002300E0DB1E012606FA05F1491E2140DB
:1014300099409E40761E16403143F0BC01F05BBBE4
:101440000CED00E0064900F0070208684FF6FF03C4
:10145000184040EA0220034A104308607047000029
:101460000CED00E00000FA051649B0F5007F0868B1
:10147000C0F3412009D0022805D0086820F4C060DC
:1014800040F480600860002070470128FBD00868A5
:1014900020F4C06040F4007008600B4832220068FD
:1014A00050430A4AB0FBF2F0401C00E0401E4A697B
:1014B000520501D50028F9D148694005E3D503203C
:1014C00070470000007000402400002040420F00E0
:1014D0000248006800F4C0607047000000700040DF
:1014E0002DE9F84F044600270088A84D3E46000528
:1014F00015D5606C60B1B0F5000F04D0B0F5400FA9
:101500002BD001270AE0E86840F48030E86024E04E
:101510000021201D00F016FF07001ED03E46206867
:1015200080033AD5A86D4FF00008C00009D4A86D1B
:1015300040F08050A865A86D4FF0010800F0805081
:101540000090DFF84CA2DAF8001041F48071CAF87C
:101550000010FFF7F3FE814610E0D5F88800616CBB
:1015600020F440000843C5F88800D8E7FFF7E6FEFE
:10157000A0EB0900022801D9032705E0DAF80000F2
:10158000C005F3D5002F7DD04FEA0706B8F1000F54
:1015900003D0A86D20F08050A8652078C00707D040
:1015A000D5F88800216A20F003000843C5F88800B8
:1015B0002078800707D5D5F88800616A20F00C00F4
:1015C0000843C5F888002078400707D5D5F888007B
:1015D000A16A20F030000843C5F888002078800612
:1015E00007D5D5F88800E16A20F440600843C5F8C3
:1015F00088002088800507D5D5F88800E16B20F4A5
:1016000040200843C5F888002088400507D5D5F854
:101610008800216C20F440100843C5F88800207829
:10162000400607D5D5F88800216B20F440500843C8
:10163000C5F888002078000607D5D5F88800616BCA
:1016400020F440400843C5F888002088C00507D52D
:10165000D5F88800A16B20F440300843C5F8880015
:1016600020684FF0006700034FF0806850D5D5F830
:101670008800A16C20F040600843C5F88800A06C89
:10168000B84200E005E03BD1E86840F48010E86033
:101690003EE0D5F8900010F4407014D0A16D814266
:1016A00011D0D5F89000D5F8901020F4407041F496
:1016B0008031C5F89010D5F8901021F48031C5F82C
:1016C0009010C5F89000C00711D0FFF737FE07460D
:1016D00041F2883907E000BFFFF730FEC11B4945E2
:1016E00001D9032652E7D5F890008007F4D5D5F844
:1016F0009000A16D20F440700843C5F8900045E7C4
:10170000404505D10121201D00F01CFE00B1064618
:101710002068400317D5D5F88800E16C20F04060C0
:101720000843C5F88800E06CB84204D1E86840F48A
:101730008010E86007E0404505D10121201D00F040
:1017400001FE00B106462088400411D5D5F8880076
:10175000216D20F040500843C5F88800206DB0F19D
:10176000805F05D10221201D00F0ECFD00B106468E
:101770002088000406D555F8880F616D20F0804060
:1017800008432860304600F005B800000010024011
:101790000070004018BCBDE8E08F00002DE9F04764
:1017A0000F46050058D0404E306800F00700B842A0
:1017B00009D2306820F0070038433060306800F00C
:1017C0000700B84248D12878384CC0072CD0686848
:1017D000032811D0022812D0216898B149050029A8
:1017E0003ADAA16821F003010143A160FFF7A6FDE9
:1017F000804641F2883910E021688901EFE72168CD
:101800008903ECE78907EAE7FFF798FDA0EB0801F9
:10181000494502D90320BDE8F087A068696800F057
:101820000C00B0EB810FEFD12878800705D5A068B8
:10183000A96820F0F0000843A060306800F00700BD
:10184000B8420BD9306820F0070038433060306868
:1018500000F00700B84201D00120DCE728784007FB
:1018600005D5A068E96820F4E0600843A060287806
:10187000000706D5A068296920F4605040EAC1003D
:10188000A06000F03FF8A168094AC1F30311515C60
:1018900001F01F01C8400749086007480068BDE81B
:1018A000F047FFF769BD0000002002400010024031
:1018B000242C0008240000201C00002005480649B4
:1018C00000688968054AC1F30221515C01F01F01DB
:1018D000C84070472400002000100240642C00081B
:1018E0000548064900688968054AC1F3C221515C70
:1018F00001F01F01C8407047240000200010024082
:10190000642C000870B52549002318468A68CC6805
:1019100012F00C0204F00306214C4FEA640509D0D2
:101920000C2A05D0042A32D0082A00D1284670BDDE
:10193000012E10D10B681B0704D4D1F89430C3F3E7
:10194000032302E00B68C3F30313164E56F823304B
:10195000DAB10C2AEBD1C86800F00300022818D0D5
:10196000032818D01846CA68CB68C2F30212C3F322
:1019700006234343521CB3FBF2F2C868C0F3416034
:10198000401C4000B2FBF0F070BD184670BD204610
:1019900070BD2046E7E72846E5E70000001002405A
:1019A0000024F400342C00082DE9F84304006FD023
:1019B000FE4DA86800F00C06E86800F003072078E8
:1019C000C00664D576B10C2E01D1012F0AD0A069D2
:1019D000002828687AD040F001002860FFF7AEFCAC
:1019E00080465DE02868800702D5A0690028DED027
:1019F000216A2868000703D5286800F0F00004E099
:101A0000D5F89400F02202EA1010814216D9084657
:101A100000F02EFD00283BD1286840F00800286027
:101A20002868216A20F0F000084328606868E169AE
:101A300020F47F4040EA0120686016E0286840F00A
:101A4000080028602868216A20F0F0000843286018
:101A50006868E16920F47F4040EA0120686026B9A7
:101A6000206A00F005FD0028D5D1FFF74BFFA968DB
:101A7000CF4AC1F30311515C01F01F01C840CD49A9
:101A80000860CD480068FFF777FC00287ED12EE083
:101A9000CAE000BFFFF752FCA0EB0800022876D88E
:101AA00028688007F6D5286840F008002860286874
:101AB000216A20F0F000084328606868E16920F49A
:101AC0007F4040EA0120686011E0FFE720F001005C
:101AD0002860FFF733FC804606E000BFFFF72EFCCE
:101AE000A0EB08000228DAD828688007F6D420780E
:101AF000C00740D0082E18D00C2E01D1032F14D0CF
:101B00006068B0F5803F17D0B0F5A02F286817D0D7
:101B100020F480302860286820F4802028606068E5
:101B2000E0B1FFF70BFC804614E02868800322D563
:101B30006068002878D01EE0286840F48030EDE727
:101B400040F480202860F7E7FFF7F8FBA0EB0800DF
:101B50006428A4D828688003F6D50CE0FFF7EEFBD4
:101B6000804605E0FFF7EAFBA0EB0800642896D862
:101B700028688003F6D4207880073BD5042E11D046
:101B80000C2E01D1022F0DD0E06801E0B6E1FFE09C
:101B9000002828681ED040F480702860FFF7CEFB34
:101BA00007460CE0286840050CD5E0680028C1D045
:101BB00008E000BFFFF7C2FBC01B022893D82868CB
:101BC0004005F7D56868217C20F0FE4040EA0160BE
:101BD00068600FE020F480702860FFF7AFFB0746D5
:101BE00005E000BFFFF7AAFBC01B0228B1D8286898
:101BF0004005F7D42078000729D560690028D5F87A
:101C0000940012D040F00100C5F89400FFF796FB55
:101C1000074604E0FFF792FBC01B022899D8D5F8CD
:101C200094008007F6D512E02BE120F00100C5F802
:101C30009400FFF783FB074605E000BFFFF77EFB3C
:101C4000C01B022885D8D5F894008007F6D42078E8
:101C5000400766D5A86D0027C00008D4A86D40F0E5
:101C60008050A865A86D012700F08050009053486F
:101C70000168C90512D40168814641F48071016090
:101C8000FFF75CFB804605E0FFF758FBA0EB080080
:101C900002287DD8D9F80000C005F5D5A068012834
:101CA00016D00528D5F8900017D020F00100C5F80F
:101CB0009000D5F8900020F0040000BFC5F8900017
:101CC000A06841F28839C0B1FFF738FB80460FE0C9
:101CD000D5F8900040F00100F0E740F00400C5F8AE
:101CE0009000F5E7FFF72AFBA0EB080149454FD824
:101CF000D5F890008007F5D50EE0FFF71FFB804672
:101D000006E000BFFFF71AFBA0EB080149453FD8EA
:101D1000D5F890008007F5D41FB1A86D20F0805051
:101D2000A8652078800628D5606A0028D5F8980034
:101D300012D040F00100C5F89800FFF7FFFA0746FF
:101D400005E000BFFFF7FAFAC01B022820D8D5F83B
:101D500098008007F6D510E020F00100C5F8980043
:101D6000FFF7ECFA074604E0FFF7E8FAC01B022889
:101D70000ED8D5F898008007F6D4A06AA8B102283A
:101D800024D00C2E7DD0286820F08070286000E0E0
:101D9000B3E02868000103D4E86820F00300E8609D
:101DA000E86807490840E8600CE09FE00010024046
:101DB000242C0008240000201C000020007000409B
:101DC000FFFFEEFEFFF7BAFA044699E0E868E26A20
:101DD00000F00301914226D1216B00F0700209014D
:101DE000103991421FD1626B00F4FE41B1EB022F1A
:101DF00019D194F8382000F07841B1EBC26F12D1BC
:101E0000A18F00F4C00249084905A1F500119142D3
:101E100009D194F8401000F0C06049084906A1F1CA
:101E2000007181424BD00C2E6FD0286840016CD4D9
:101E3000286820F080702860FFF780FA064604E0EA
:101E4000FFF77CFA801B022857D828688001F7D456
:101E5000F4E90B016FF00F0202EB01110843218A34
:101E60005204490802EB4151A26841EA02210843A9
:101E7000217D4FF07E42490802EB41610843217BFE
:101E800000E042E040EAC160E968214A11400843AD
:101E9000E860286840F080702860E86840F0807052
:101EA000E860FFF74BFA044605E000BFFFF746FA8B
:101EB000001B022821D828688001F7D523E0286874
:101EC000800120D4286840F080702860E86840F0E5
:101ED0008070E860FFF732FA044604E0FFF72EFA5C
:101EE000001B022809D828688001F7D50BE000BF45
:101EF000FFF724FA001B022802D90320BDE8F8836B
:101F000028688001F4D40020F8E70120F6E70000FB
:101F10008C809D0110B5401EB0F1807F01D301205F
:101F200010BD4FF0E02460610F21601700F0E3FD69
:101F30000020A06107202061002010BD704770477D
:101F40002DE9F04102680446D0691168936840F6B3
:101F50000F0528424FF0000505D186067BD58E0679
:101F600079D5216E88E04D4F03F001060F403743CD
:101F700071D0C70707D0CF0505D501271762E26FDB
:101F800042F00102E267820708D5DA0706D0276827
:101F900002223A62E26F42F00402E267420708D589
:101FA000DA0706D0236804221A62E26F42F00202C6
:101FB000E26702070AD501F02002324306D0236807
:101FC00008221A62E26F42F00802E267020509D5B0
:101FD0004A0107D523684FF400621A62E26F42F0AB
:101FE0002002E267E26F002A2ED0800605D588061F
:101FF00003D5216E09B120468847E06F21688968C2
:10200000490602D410F0280F20D0204600F070FBC3
:1020100020688168490614D5816821F040018160FB
:10202000E06E70B11E498163E06EFFF77FF8002813
:102030000AD0E06E816B00E02046BDE8F041084721
:1020400009E02046FFF77BFFBDE8F0812046FFF75F
:1020500076FFE567F8E7C60209D55B0207D54FF4BE
:10206000801010622046BDE8F041FFF767BF03060D
:1020700005D50B0603D5616E0029DDD1E4E74006E6
:10208000E2D54806E0D51168204621F040011160F4
:1020900020216167656600F013F9D5E7200100048F
:1020A000DD26000810B5040002D0606F10B107E013
:1020B000012010BD002084F87000204600F026F8B2
:1020C000242060672068016821F00101016020463A
:1020D00000F078FB0128ECD0606A10B1204600F0D7
:1020E0006DFA2068416821F4904141602068816860
:1020F00021F02A0181602068016841F0010101603E
:102100002046BDE8104000F0BDBA000010B586B012
:10211000044614216846FEF72DFA174920688842C4
:1021200028D11648016E41F480410166016E01F428
:1021300080410591C16C41F00101C164C06C6946E8
:1021400000F0010005904FF4C06000900220019063
:102150000020029003200390072004904FF090404D
:10216000FFF70CF8002211462520FFF74BF9252038
:10217000FFF73AF906B010BD0038014000100240E8
:1021800030B5836F202B4BD1B1B1AAB190F870302C
:10219000012B45D0012380F870304165A0F858200C
:1021A000A0F85A20002101661D038268FF23AA427D
:1021B00007D1026912B125E0012030BD40F2FF12C3
:1021C00026E07F24E2B1B2F1805F1ED0A0F85C105F
:1021D000C167222282670268936843F0010393601B
:1021E0008268AA4201D10269C2B10E4A026680F831
:1021F00070100068016841F490710160002030BDEA
:10220000026942B9A0F85C30E2E702691AB13F22E4
:10221000A0F85C20DCE7A0F85C40D9E7024AE5E7DB
:10222000022030BD692700080F27000810B50446BA
:102230000068084988420BD10D220749204600F06A
:102240000DF82046BDE810400D220349FFF798BF66
:1022500010BD00000038014034000020436F202BE7
:1022600028D1B1B1AAB190F87030012B22D001234E
:1022700080F87030C164A0F85020A0F852200021EE
:102280004166C167212242678268B2F5805F02D051
:1022900003E001207047026952B1074A426680F8A4
:1022A00070100068016841F08001016000207047F3
:1022B000024AF3E702207047092A0008C9290008EA
:1022C0007047FEE70D4808B5C16C41F00401C164D8
:1022D000C16C01F004010091C16C41F08001C16446
:1022E000C16C01F080010091C16C41F00101C16439
:1022F000C06C00F00100009008BD0000001002401A
:102300000D4810B50B4901604FF4E13141600021E7
:1023100081600C22C160C0E904128161C161016267
:102320004162FFF7BFFE002803D0BDE81040FEF772
:10233000FBBE10BD0038014044000020FEE7FEE770
:10234000704700002DE9F041444C05468846E0689E
:102350000026810728680DD0E16801F00301814261
:1023600016D1A8B1E0686968C0F30210401C884229
:102370000ED120E0012804D0022805D0032807D17F
:1023800008E02168890701E021684905002907DB89
:1023900001265FE02168890302D421684903F5E73B
:1023A000E1686A686FF00F0321F0730103EB02121A
:1023B00011430143E160206820F080602060FEF757
:1023C000BDFF074605E000BFFEF7B8FFC01B0228AF
:1023D00037D820680001F7D4B8F1000F18D0B8F151
:1023E000010F1DD0287D4FF07E41400801EB406079
:1023F000A96840EA01202169194A11400843206177
:10240000206840F080602060FEF798FF07461AE0E1
:10241000A868297B000240EAC1602169114AECE703
:10242000288A1149400801EB4050A96840EA012080
:1024300021690E4AE1E700BFFEF780FFC01B0228BA
:1024400001D9032606E020680001F5D52069A969B5
:10245000084320613046BDE8F081000000100240D2
:10246000FF80FFF9FF80FF070000E0FFFF809FFF74
:10247000F8B51C4D06460024A86DC00002D5FFF734
:1024800027F80DE0A86D40F08050A865A86D00F019
:1024900080500090FFF71CF8A96D21F08051A965CC
:1024A000B0F5007F04D0802E07D94FF003040AE076
:1024B000802E08D9A02E01D804E001D1022402E028
:1024C000702E00D101240848016821F00701214342
:1024D0000160006800F00700A04201D00120F8BDB3
:1024E0000020F8BD00100240002002407047FEF7B7
:1024F0002BBF30B5ADB044216846FEF73BF8142140
:1025000028A8FEF737F85C2111A8FEF733F801255B
:102510002804CDE90050022003241421CDE90C51F8
:10252000CDE90A040721CDE90E1010906846FFF7A7
:102530003BFA08B172B6FEE70F20CDE9280400246B
:102540002A942B94042128A82C94FFF727F908B18A
:1025500072B6FEE711A811951994FEF7C1FF08B1F4
:1025600072B6FEE74FF40070FEF77EFF002801D040
:1025700072B6FEE72DB030BD0D48016841F4700120
:1025800001600C48016841F0010101600021816097
:102590000268094B1A4002608214C260026822F489
:1025A0008022026081610249C0038039086070475F
:1025B00088ED00E000100240FFFFF6EA90F82410DA
:1025C000C90706D001684A68836A22F400321A43B8
:1025D0004A6090F82410890706D501684A68C36AE2
:1025E00022F480321A434A6090F82410490706D535
:1025F00001684A68036B22F480221A434A6090F80B
:102600002410090706D501684A68436B22F400428A
:102610001A434A6090F82410C90606D501688A68F2
:10262000836B22F480521A438A6090F82410890642
:1026300006D501688A68C36B22F400521A438A6087
:1026400090F82410490611D501684A68036C22F4F9
:1026500080121A434A60016CB1F5801F06D10168EF
:102660004A68436C22F4C0021A434A6090F824106E
:10267000090606D501684A68806C22F400220243EC
:102680004A607047F8B500260446C667FEF756FE56
:102690000546206800686FF07E47000708D52B4686
:1026A00000224FF400112046009700F0CBF960B9EA
:1026B0002068006840070AD52B4600224FF48001AD
:1026C0002046009700F0BEF908B10320F8BD202095
:1026D0006067A06784F870600020F8BD10B5806A5C
:1026E0000021A0F85A10A0F85210FFF728FC10BDE6
:1026F00001680A6822F490720A6001688A6822F010
:1027000001028A602021816700210166704710B5AF
:10271000B0F85C20836F0168222B04D0088B40F056
:102720000800088310BD898C436D11401980416DEC
:10273000891C4165B0F85A10491EA0F85A10B0F82B
:102740005A100029EED101680A6822F490720A60DA
:1027500001688A6822F001028A60202181670021D5
:102760000166FFF763FD10BD10B5B0F85C20836F04
:102770000168222B04D0088B40F00800088310BDAC
:10278000898C1140426D1170416D491C4165B0F852
:102790005A10491EA0F85A10B0F85A100029EED16C
:1027A00001680A6822F490720A6001688A6822F05F
:1027B00001028A602021816700210166FFF736FD52
:1027C00010BD00002DE9F0410446016880682269CF
:1027D000E3691043626900251A431043724F0A6887
:1027E000724B1A4002430A6020684168E26821F493
:1027F0004051114341602168A069B94201D0226A69
:1028000010438A6822F4306202438A606849236870
:1028100068488B420DD1D0F8880010F0030006D034
:10282000012847D0022843D0032830D144E00121B9
:102830002EE061498B420BD1D0F8880010F00C00DB
:1028400034D0042836D0082832D00C281FD133E0E9
:102850005A498B420BD1D0F8880010F0300025D0B7
:10286000102827D0202823D0302810D124E0BB42C4
:102870000DD1D0F8880010F4406017D0B0F5806F0B
:1028800018D0B0F5006F13D0B0F5406F14D0102100
:102890004B4A00264FF40040BB422FD171B10229B0
:1028A0000FD004290FD0082975D10FE00021EFE7E0
:1028B0000221EDE70421EBE70821E9E7FEF7FEFF3F
:1028C00003E0104602E0FFF71DF8E0B3626802EB98
:1028D000420181425FD8B0EB023F5CD8010E00029A
:1028E00073084FEA3207C01959410023FDF7CEFCA7
:1028F000344AA0F5407191424FD94CE0E3694FF65C
:10290000EF77834229D1092945D2DFE801F0050894
:102910000B440D4444441000FEF7D0FF06E0FEF7E0
:10292000DFFF03E0104602E0FEF7ECFF58B1410084
:10293000606801EB5001B1FBF0F080B2A0F1100132
:10294000B94228D800E02AE04FF6F0710140C0F308
:10295000420001432068C16021E009291BD2DFE861
:1029600001F005080B1A0D1A1A1A1000FEF7A6FF3F
:1029700006E0FEF7B5FF03E0104602E0FEF7C2FFF7
:1029800068B1616800EB5100B0FBF1F080B2A0F1DA
:102990001001B94201D9012501E02168C86026660D
:1029A00028466666BDE8F08100800040F369FFEFCD
:1029B0000038014000100240004400400048004040
:1029C0000024F400FFFC0F00416F212910D1B0F862
:1029D000521071B1C16C02680988C1F308011185F8
:1029E000C16C891CC164B0F85210491EA0F8521085
:1029F000704701680A6822F080020A600068016876
:102A000041F0400101607047416F21290ED1B0F8BB
:102A1000521061B1C16C026809781185C16C491C02
:102A2000C164B0F85210491EA0F8521070470168F6
:102A30000A6822F080020A600068016841F04001E3
:102A4000016070472DE9F0479A4617460E46044646
:102A50004FF000094FF02008089D39E0681C37D07E
:102A6000FEF76CFCA0EB0A00A84222D80DB3206848
:102A7000016849072CD5C069C043000528D42168E6
:102A80004FF4006008622068016821F4D071016091
:102A90002068816821F001018160C4F87480C4F865
:102AA0007880C4F87C8000BF84F870900320BDE873
:102AB000F0872068016821F4D07101602068816886
:102AC00021F001018160C4F87480C4F87880EBE7DC
:102AD0002068C06936EA000004D00020B842BDD0AA
:102AE0000020E4E70120F9E70148FFF729BA0000D8
:102AF00044000020FEE70907090E002804DB00F16E
:102B0000E02080F80014704700F00F0000F1E02092
:102B100080F8141D70478A68002A01DCFDF7F7BEB3
:102B2000521E8A604A68C0B2531C4B6010707047D6
:102B30003424FEF711FCFFF7DCFCFFF7C3FBFFF7C3
:102B4000DFFB0D2215491648FFF71AFB1522154920
:102B50001348FFF783FB14A0FDF710FCE1B21AA0A5
:102B6000FDF70CFCE0B2342814D0122814D019A0C0
:102B7000FDF704FC1BA0FDF701FC08211DA0FDF7DB
:102B8000FDFB0C211BA0FDF7F9FB082119A0FDF7A7
:102B9000F5FBFEE719A0EBE71CA0E9E734000020F5
:102BA0004400002000000020B2E9BFB4B1E4C1BF7E
:102BB00061B5C4B4F3D0A1CEB2B5C4B4E6B4A2B783
:102BC000BDCABD0D0A000000703D25236868780D60
:102BD0000A000000756E6B6E6F776E20656E64691B
:102BE000610D0A00C4DAB4E6B6D4C6EBB9E6D4F295
:102BF0000D0A0000256C640D0A0000006C697474F5
:102C00006C6520656E6469616E0D0A0062696720FB
:102C1000656E6469610D0A004FF04070E1EE100AC4
:102C200070470000000000000000000001020304E3
:102C300006070809A0860100400D0300801A06005F
:102C400000350C0040420F0080841E0000093D004A
:102C500000127A000024F40000366E010048E801FA
:102C6000006CDC020000000001020304303132334A
:102C700034353637383941424344454640305800B0
:102C800030313233343536373839616263646566E2
:102C9000403078000400000800000000000000023E
:102CA00000010000103A7474003A7474003A7474AD
:102CB00000000000D42C00080000002034000000B8
:102CC000C8010008082D000834000020EC070000AF
:102CD000E401000855534152543120697320726554
:102CE0006164792E2E2E0D0A000000000100000004
:102CF000100000000000000000093D00000000007E
:082D00000000000000000000CB
:040000050800018D61
:00000001FF
